:020000040800F2
:10000000680E00200101000843150008951400083F
:1000100041150008110300086D2D000800000000C4
:10002000000000000000000000000000C9180008E7
:100030001303000800000000C7180008CB180008D0
:100040001B0100081B0100081B0100081B01000820
:100050001B0100081B0100081B0100081B01000810
:100060001B0100081B0100081B0100081B01000800
:100070001B0100081B0100081B0100081B010008F0
:100080001B0100081B0100081B0100081B010008E0
:10009000052D00081B0100081B0100081B010008BA
:1000A0001B0100081B0100081B0100081B010008C0
:1000B0001B0100081B0100081B0100081B010008B0
:1000C0001B0100081B0100081B0100081B010008A0
:1000D0001B010008951C00081B0100081B010008FB
:1000E0001B0100081B0100081B010008DFF80CD0F1
:1000F00000F070F800480047992D0008680E0020B5
:100100000648804706480047FEE7FEE7FEE7FEE7B1
:10011000FEE7FEE7FEE7FEE7FEE7FEE7511900080F
:10012000ED00000840EA01039B0703D009E008C97D
:10013000121F08C0042AFAD203E011F8013B00F8AC
:10014000013B521EF9D2704770B5064602F010FE10
:10015000046805460A220021304600F002F82C60AF
:1001600070BD2DE9F04791460F46804604460026B3
:1001700014F8015B2DB100F03FF80068405DC00746
:10018000F6D12B2D02D02D2D18D0641E4A463946AB
:10019000204600F035F827B13968A14201D1C7F8EF
:1001A000008071054FF002040BD54042002803DDAA
:1001B00002F0DEFD0460A007BDE8F08746F480662B
:1001C000E4E70028F8DA02F0D3FD04606FF00040A5
:1001D000F2E70000064C074D06E0E06840F001033E
:1001E00094E8070098471034AC42F6D3FFF782FF3B
:1001F000B8310008D831000800487047B431000811
:100200002DE9F05F82460078002715468B460AF1FB
:100210000104B946302801D09DB113E014F8010B58
:100220000127782803D0582801D045B10AE00DB144
:10023000102D07D10027102514F8010B02E0082526
:1002400000E00A250026B0460EE005FB080005FB8D
:1002500006F1012701EB10461FFA80F8B6F5803F42
:1002600000D3B94614F8010B294600F018F800280D
:10027000EBDABBF1000F05D00FB1641E00E054466D
:10028000CBF80040B9F1000F06D002F071FD022159
:100290000160C81EBDE8F09F48EA0640FAE73A2828
:1002A00000D2303820F02002412A01D3A2F13700D9
:1002B000884201D34FF0FF30704770B58C1810F8AA
:1002C000015B15F0070301D110F8013B2A1106D19B
:1002D00010F8012B03E010F8016B01F8016B5B1EB5
:1002E000F9D12B0705D40023521E0DD401F8013B90
:1002F000FAE710F8013BCB1A921C03E013F8015BFC
:1003000001F8015B521EF9D5A142D8D3002070BD7F
:10031000FEE7704710B590F821100024022903D0A1
:100320000421816301243DE001680A6822F00E0285
:100330000A6001680A6822F001020A601A4A01682C
:10034000914201D1012121E0174A1432914201D199
:1003500010211BE0144A2832914201D1891515E081
:10036000114A3C32914201D189140FE00E4A5032B9
:10037000914202D14FF4803108E00B4A643291423D
:1003800002D14FF4801101E04FF08071064A083A23
:100390005160012180F82110002180F82010416B6C
:1003A00001B18847204610BD0800024070B50446E0
:1003B00000F0F2F80546601C02D0044800780444BE
:1003C00000F0EAF8401BA042FAD370BD44000020C0
:1003D0002DE9F84FDFF890A100220AF1040B144632
:1003E00001274FF00F090BF1040E00BF0B6807FA4D
:1003F00004F52B40AB4274D1DFF870C14E68A6EB18
:100400000C0866452BD00DDC032E34D005DC36B34A
:10041000012E19D0022E2FD11BE0112E16D0122E34
:100420002AD119E0B8F5881F19D006DCB8F5803F4D
:1004300015D0B8F5801F1FD111E0B8F5001F0ED000
:10044000B8F5041F18D10AE0CA6815E0CA68121D81
:1004500012E0CA6808320FE0CA680C320CE08A6801
:100460002AB1012A4FF0080203D0456104E00422BA
:1004700002E0056100E00022FF2B01D8064601E002
:1004800000F104064FEA840501D9A5F12005D6F84C
:1004900000C009FA05F82CEA080C02FA05F54CEA46
:1004A000050CC6F800C04D68ED0057D5304DAE695B
:1004B00046F00106AE61AD6924F0030605F00105C2
:1004C00000952C4D06EB050CDCF80850A6074FEA0A
:1004D000167809FA08F6B543274EB04202D1002635
:1004E00010E03BE0254EB04201D101260AE0244E47
:1004F000B04201D1022605E0224EB04201D10326CE
:1005000000E0042606FA08F62E43CCF808604D6891
:10051000DAF80060ED03554601D51E4300E09E4326
:100520002E604D68DBF80060AD035D4601D51E43CB
:1005300000E09E432E604D68DEF80060ED027546D7
:1005400001D51E4300E09E432E604D68AD020E4D66
:100550002E6801D51E4300E09E432E60641C102CC3
:10056000FFF444AFBDE8F88F000401400000111013
:10057000001002400000014000080140000C014052
:1005800000100140001401400C0401400AB1016157
:1005900070470904FBE700000148806870470000CD
:1005A000440000200248816802781144816070474D
:1005B00044000020074810B5016841F010010160B7
:1005C000032000F09DF8002000F006F800F024F869
:1005D000002010BD0020024070B50D4D04464FF4C0
:1005E0007A712878B1FBF0F00A490968B1FBF0F0A4
:1005F00000F0EBFD48B9102C07D200222146501E16
:1006000000F05EF800206C6070BD012070BD00003D
:100610004400002050000020214808B5816941F0C5
:1006200001018161816901F001010091C16941F01D
:100630008051C161C06900F080500090032000F03B
:100640005FF8002211466FF00B0000F039F800222D
:1006500011466FF00A0000F033F8002211466FF0E7
:10066000090000F02DF800221146501F00F028F874
:1006700000221146101F00F023F800221146901EA0
:1006800000F01EF800221146501E00F019F805482F
:10069000416821F0E06141F08061416008BD0000E7
:1006A000001002400000014000F01F0201219140B3
:1006B0004009800000F1E020C0F800117047000000
:1006C000F0B40E4B1B680C46C3F30223C3F10705BD
:1006D000042D00D90425191D072901D2002300E0AB
:1006E000DB1E012606FA05F1491E214099409E4075
:1006F000761E16403143F0BC00F024BF0CED00E044
:10070000064900F0070208684FF6FF03184040EA68
:100710000220034A10430860704700000CED00E01F
:100720000000FA0510B50C0605D501F07F0100EBBD
:100730004110283003E000EB411000F50A7099B237
:1007400032B101228272C180190C0181002010BDDA
:10075000002282728180F9E7704700EB4112D0F8E5
:100760005C04D26B01F0A5BC00EB4112D0F85C0434
:10077000D2F83C2201F0F2BC10B504460A460B0642
:1007800001F07F0004EB401101D5283101E001F5B3
:100790000A710870D009487094F82804012809D01B
:1007A000012084F82804206802F0C8F8002084F8AA
:1007B000280410BD022010BD70B50A460446090683
:1007C00002F07F0003D504EB4011283103E004EB75
:1007D000421101F50A7100258D700870D00948702A
:1007E00094F82804012809D0012084F828042068FE
:1007F00002F052F984F82854002070BD022070BD28
:1008000070B504460D460E0601F07F0004EB401162
:1008100001D5283101E001F50A710870E809487036
:100820000A61CB7094F82804012809D0012084F8CB
:100830002804206801F052FF002084F8280470BDCD
:10084000022070BD70B50C4601F07F0500EB45112C
:10085000C1E98F230022C1F8442281F8292281F8BE
:10086000285201F50A716206006802F06FF9002053
:1008700070BD70B50D460446090605F07F0003D52E
:1008800004EB4011283103E004EB451101F50A7136
:1008900001228A700870E809487094F82804012839
:1008A00007D084F82824206802F02BF9680602D0CB
:1008B00006E0022070BD04F22C41206802F0EAF844
:1008C000002084F8280470BD70B50C4601F07F0547
:1008D00000EB4511C1E90F2300224A64012281F88F
:1008E000292001F8285F6206006802F02FF9002035
:1008F00070BD10B50446006802F00AFA000402D583
:10090000204600F02FFE206802F002FA40050CD5C8
:10091000206830F8441F21F480610180204600F0F7
:10092000EDF80021204600F0FEF8206802F0F0F912
:10093000400405D5206830F8441F21F4804101802F
:10094000206802F0E5F9800405D5206830F8441FDE
:1009500021F400510180206802F0DAF9C00414D5B6
:10096000206830F8401F21F004010180206830F831
:10097000401F21F008010180204600F0CCF82068DB
:1009800030F8441F21F480510180206802F0C0F942
:1009900000051AD5206830F8401F41F00801018099
:1009A000206830F8441F21F400610180206830F88D
:1009B000401F41F004010180206802F0A9F9C04302
:1009C000C00402D5204600F0E3F8206802F0A0F948
:1009D000800508D5206830F8441F21F4007101809B
:1009E000204600F09CF8206802F092F9C00505D579
:1009F000206830F8441F21F48071018010BD000090
:100A00002DE9F04186B004004FF0000504D094F8C1
:100A10002904002620B108E0012006B0BDE8F081DD
:100A200084F82864204600F04BF8032084F8290459
:100A3000206802F028F804F1100114228846684664
:100A4000FFF770FB94E80F0001F076FF00212068AB
:100A500002F071F95FF0010704EB451080F829708E
:100A600000F8285F8581C670066146616D1C86614D
:100A70000F2DF1D35FF0000004EB401181F82962E3
:100A800081F82802888681F82B62C1F83862C1F8A3
:100A90003C62401CC1F840620F28EDD3142241464D
:100AA0006846FFF73FFB94E80F0001F0DDFF84F894
:100AB000246084F82974206801F0D4FF0020ACE79A
:100AC00008B500680B49884212D10B48C16941F44E
:100AD0000001C161C069002200F4000000901146CD
:100AE0001420FFF7EDFDBDE808401420FFF7DCBD42
:100AF00008BD0000005C00400010024010B5044634
:100B00000121D0F85C0401F003FCD4F85C04BDE8DA
:100B1000104001F0CCBBD0F85C0401F0E7BBD0F88A
:100B20005C0401F0E9BB10B5044690F828040128E4
:100B30000BD0012084F8280484F82410206802F0E7
:100B4000FCF8002084F8280410BD022010BDD0F865
:100B50005C2400F22C41104601F0EDBB10B50446B8
:100B600090F82804012810D0012084F828040146B8
:100B70002046FFF7F1FD206801F072FF206802F0C7
:100B8000BAF8002084F8280410BD022010BD00002F
:100B900010B50446D0F85C0401F01AFCA0690028E6
:100BA00004D00348016841F00601016010BD000057
:100BB00010ED00E02DE9F84305460078354CC007FC
:100BC00054D0E0690026C00008D4E06940F08050AD
:100BD000E061E069012600F0805000902E48016835
:100BE000C90512D40168804641F480710160FFF7A5
:100BF000D3FC074605E000BFFFF7CEFCC01B64280E
:100C000023D8D8F80000C005F6D5206A10F440704B
:100C100021D0A98801F4407181421CD0206A1F496B
:100C2000012220F440700A6000220A602062C0079E
:100C300011D0FFF7B1FC074641F2883808E000BF49
:100C4000FFF7AAFCC11B414502D90320BDE8F88388
:100C5000206A8007F4D5206A696820F44070084350
:100C600020621EB1E06920F08050E06128788007A2
:100C700005D56068A96820F4404008436060287882
:100C8000C00605D56068E96820F48000084360600C
:100C90000020DBE7001002400070004040044242A8
:100CA0002DE9F047DFF83C8105460E46D8F80000F4
:100CB00000F00700B0420CD2D8F8001021F0070174
:100CC0003143C8F80010D8F8000000F00700B04227
:100CD00063D12878444C800705D56068A96820F066
:100CE000F000084360602878C00745D06868012894
:100CF00016D02168022816D0890700294DDA6168CC
:100D000021F0030101436160FFF746FC6968074673
:100D100041F2883001290FD00229814619D027E0FD
:100D200021688903E9E78901E7E700BFFFF734FCA1
:100D3000C11B494501D918E081466068C0F38100B4
:100D40000128F3D118E000BFFFF726FCC11B49457D
:100D50000BD86068C0F381000228F5D10CE000BF19
:100D6000FFF71AFCC11B494502D90320BDE8F087F3
:100D7000606810F00C0FF3D1D8F80010404601F075
:100D80000701B1420BD9016821F00701314301602D
:100D9000006800F00700B04201D00120E6E72878A3
:100DA000400705D56068E96820F4E06008436060AA
:100DB0002878000706D56068296920F4605040EA69
:100DC000C100606000F03CF86168084AC1F303119B
:100DD000515CC840064908600020FFF7FDFB002079
:100DE000C4E7000000200240001002401831000853
:100DF00050000020014800687047000050000020AB
:100E00000448054900684968044AC1F30221515C5D
:100E1000C8407047500000200010024028310008F0
:100E20000448054900684968044AC1F3C221515C7D
:100E3000C8407047500000200010024028310008D0
:100E400012A185B00FC98DE80F0014A0144A0068E4
:100E500004905168134801F00C03042B10D0082BA8
:100E60000ED1C1F38343C9031DF803000AD55168AD
:100E700004AAC1F34041515C0A4A5043B0FBF1F06F
:100E800005B0704708494843FAE70000020304052B
:100E9000060708090A0B0C0D0E0F101001020000C6
:100EA0000010024000127A0000093D002DE9F84FC1
:100EB00004460078B94DC00748D06868C0F3810087
:100EC000012807D06868C0F38100022809D168684A
:100ED000C00306D52868800338D5606800286FD025
:100EE00034E06068B0F5803F0BD010B1B0F5A02FB2
:100EF00011D0286820F480302860286820F48020F1
:100F000002E0286840F480302860606888B1FFF70C
:100F100043FB064609E0286840F480202860F0E79B
:100F2000FFF73AFB801B642875D828688003F7D543
:100F30000CE0FFF731FB064605E000BFFFF72CFB96
:100F4000801B6428F0D828688003F7D42078944E5A
:100F500080074FF001094FF000083BD5686810F09A
:100F60000C0F07D06868C0F38100022809D16868B7
:100F7000C00306D42868800714D5206901281FD132
:100F800010E02069B0B1C6F80090FFF705FB0746F6
:100F900005E000BFFFF700FBC01B0228C4D828688B
:100FA0008007F7D52868616920F0F80040EAC100A1
:100FB00028600FE0C6F80080FFF7EEFA074606E06B
:100FC000E9E000BFFFF7E8FAC01B022823D8286831
:100FD0008007F7D4207800072CD57248A169D9B1D1
:100FE000C0F80090FFF7D8FA074604E0FFF7D4FAFC
:100FF000C01B02280FD8686A8007F7D56A484FF4EB
:10100000FA510068B0FBF1F0009000BF0098411E5B
:101010000091FAD20EE080E0C0F80080FFF7BCFA41
:10102000074604E0FFF7B8FAC01B022875D8686AC3
:101030008007F7D42078400760D5E8690027C00012
:1010400008D4E86940F08050E861E869012700F0C1
:101050008050009055480168C90513D40168834643
:1010600041F480710160FFF797FA824606E000BF05
:10107000FFF792FAA0EB0A0064284ED8DBF80000D4
:10108000C005F5D5E06801280AD008B1052813D0BD
:10109000286A20F001002862286A20F0040002E09B
:1010A000286A40F001002862E06841F2883B98B16C
:1010B000FFF772FA82460BE0286A40F004002862CB
:1010C000EEE700BFFFF768FAA0EB0A0159455AD8CE
:1010D000286A8007F6D50CE0FFF75EFA824605E045
:1010E000FFF75AFAA0EB0A0159454CD8286A800745
:1010F000F6D41FB1E86920F08050E861E06988B358
:101100006968C1F38101022945D00228C6F86080D0
:1011100004D0FFF741FA044638E034E0FFF73CFA28
:10112000074604E0FFF738FAC01B02282BD82868CE
:101130008001F7D4206AB0F5803F05D16868A168C6
:1011400020F4003008436860D4E908010843696866
:1011500021F4741108436860C6F86090FFF71CFA28
:10116000044606E015E000BFFFF716FA001B022850
:1011700009D828688001F7D50BE000BFFFF70CFA0B
:10118000001B022802D90320BDE8F88F28688001DF
:10119000F4D40020F8E70120F6E700000010024038
:1011A0000000424280044242500000200070004093
:1011B0004FF0E0210428086903D020F00400086102
:1011C000704740F00400FAE7704710B5401EB0F1D8
:1011D000807F01D3012010BD4FF0E02460610F211A
:1011E000601700F0AFF90020A06107202061002007
:1011F00010BD10B5FFF7E8FF10BD704770B502686D
:1012000004461068D168536910F00F0F51D003F0F5
:10121000010501F4907635435DD0C20705D0CA05BB
:1012200003D5E26B42F00102E263420705D5DA071B
:1012300003D0E26B42F00202E263820705D5DA07CF
:1012400003D0E26B42F00402E263020705D5DA073D
:1012500003D0E26B42F00802E263E26B002A34D072
:10126000800604D5880602D5204600F0ABFB206836
:101270004069E16BC0F3801001F008010143204692
:1012800024D000F091FB2068416949061AD54169D4
:1012900021F040014161606BA0B11B494163606B6B
:1012A000FFF738F8002810D0606B416BBDE8704044
:1012B000084783060FD58B060DD52046BDE8704044
:1012C00000F080BB2046FFF798FF70BDFFF795FF49
:1012D0000020E06370BD030606D50B0604D520464A
:1012E000BDE8704000F072BC4006F3D54806F1D569
:1012F000D168204621F04001D160202184F83910C6
:1013000000F0C7F870BD00009919000870B504001E
:1013100004D094F83900002510B106E0012070BD1A
:1013200084F83850204600F023F8242084F839004F
:101330002068C16821F40051C160204600F08EFB96
:101340002068016921F4904101612068416921F020
:101350002A0141612068C16841F40051C160E56320
:10136000202084F8390084F83A00002070BD000085
:1013700010B50068154986B0884225D114488169A6
:1013800041F4804181618069124C00F480400490F6
:101390004FF40070009002200190032003906946F2
:1013A0002046FFF715F800212015CDE90001029134
:1013B00069462046FFF70CF8002211462520FFF76A
:1013C0007FF92520FFF770F906B010BD0038014005
:1013D00000100240000801402DE9F843044690F84F
:1013E0003A00994616460D4620284FD195B18EB148
:1013F00094F83800012849D0012084F838000027EB
:10140000E763222084F83A00FFF7C6F8A6858046F5
:10141000E68531E00120BDE8F883E08D401EE085DF
:10142000A0684346B0F5805F4FF000024FF0200106
:101430002046CDF8009004D000F0F9FB98B10320CD
:10144000E9E700F0F4FB0028F9D1206900282068C2
:10145000406803D0C1B225F8011B0DE0C0F30801BC
:1014600025F8021B08E0206900282068406801D0A8
:1014700000F07F0005F8010BE08D0028CDD1202081
:1014800084F83A0084F838700020C4E70220C2E7EC
:1014900070477047FEE7000070B51B4886B0816951
:1014A00041F010018161816901F0100104918169AD
:1014B00041F020018161816901F02001049181697D
:1014C00041F0040181618069104E00F004004FF486
:1014D00000540490002221463046FFF757F80025BB
:1014E0000320CDE90250009401246946019430465E
:1014F000FEF76EFFCDE90045694605480294FEF708
:1015000067FF06B070BD00000010024000100140EF
:101510000008014010B500220649074800F094FD7C
:101520000649054800F081FFBDE81040024800F080
:10153000C9BF000010000020CC010020580000208E
:10154000FEE770470907090E002806DA00F00F00D1
:1015500000F1E02080F8141D704700F1E02080F8D1
:10156000001470472DE9FC5F4FF000080446ADF809
:101570000480ADF8008048F60F7B4FF002094FF46D
:10158000806692E1BDF8041011F00F072BD030F8FF
:101590002710ADF80010BDF80010090478D530F818
:1015A000272040F68F710A4020F8272004EB4715CA
:1015B00095F8320205F50A750028206869D0297867
:1015C00030F8212052047DD5B0F8503009EBC1012C
:1015D000194406EB4101415AC1F309015FEA010ACE
:1015E00071D0EA88D0E0BDF80410C9062AD4018879
:1015F00001EA0B010180206804F12805B0F85020B1
:101600002B7809EBC301114406EB4101405AC0F3AA
:1016100009006064E16B0844E06300212046FFF7A5
:101620009CF894F824000028ABD0A8690028A8D121
:1016300094F82400216840F08000A1F84C0084F860
:10164000248032E1018804F50A75ADF80010BDF878
:10165000001009051ED5B0F850302978062202EB9B
:10166000C101194406EB4101405A04F22C41C0F378
:101670000903EB61AA88206801F04EFB206801880D
:1016800040F68F72114001802046FFF760FA0CE1AE
:10169000A0E055E0BDF800100904D2D5028840F65C
:1016A0008F710A4002802068B0F8503029780622F5
:1016B00002EBC101194406EB4101405A83059B0D21
:1016C000EB6101E051E063E008D0AA886969206815
:1016D00001F022FBE969686908446861002120463D
:1016E000FFF742F82068B0F85010891D06EB410161
:1016F000014428693E280CD9C0F34F12C00601D11D
:10170000521E92B24FF6FF7000EA822040F4004071
:1017100009E0C0F34F02C00701D0521C92B24FF64D
:10172000FF7000EA82200860216808884BF68F72FB
:10173000104080F4405048F2800210430880B4E02A
:10174000B0F850202B78062101EBC301114406EBC1
:101750004101415AC1F309015FEA010A24D0AA8874
:101760005346696901F0D8FA1EE0B0F8502006230C
:1017700003EBC101114406EB4101415AC1F30901D8
:101780005FEA010A04D02A895346696901F0C4FA64
:101790002978206830F8213048F68F72134048F2DB
:1017A000C002134320F82130E96901EB0A00E86127
:1017B000696901EB0A026A61AB6913B12869504596
:1017C00004D929782046FEF7CFFF03E02978204688
:1017D000FFF738F8BDF80000000666D5206804EB76
:1017E000471530F8271001EA0B0120F8271095F86B
:1017F000320028350028206812D0297830F82120BE
:10180000B0F8503052061ED509EBC101194406EB61
:101810004101405A83059B0DEB6124D0EA881EE00C
:10182000B0F850302A7809EBC201194406EB4101A7
:10183000405A83059B0DEB6121D0AA886969206815
:1018400001F081FA1BE0062202EBC101194406EB0C
:101850004101405A83059B0DEB6104D02A896969D7
:10186000206801F070FA2978206830F8212048F6C5
:101870008F731A404CF280031A4320F8212020680D
:10188000B0F850202B7809EBC301114406EB41015D
:10189000405AC0F30900E86169690A186A61297849
:1018A000AB69204663B1FFF70FF82068B0F8441029
:1018B000ADF8041009043FF565AE0020BDE8FC9FBB
:1018C000FEF74BFFF1E77047704710B5FEF76AFE71
:1018D000BDE81040FFF78DBC30B593B0012108047E
:1018E000CDE900100024029402250491CDE90750AF
:1018F0004FF4E01009906846FFF7D8FA00B1FEE710
:101900000F20CDE90A054FF48060CDE90C4002219B
:101910000AA80E94FFF7C4F900B1FEE710200F905B
:1019200012940FA8FFF746F900B1FEE7FFF762FA3D
:101930004FF47A71B0FBF1F0FFF747FC0420FFF79A
:1019400037FC00221146501EFEF7BAFE13B030BD20
:101950000D48016841F00101016041680B4A1140E6
:10196000416001680A4A11400160016821F4802148
:101970000160416821F4FE0141604FF41F01816064
:101980000449C00308607047001002400000FFF8DF
:10199000FFFFF6FE08ED00E010B5406A0021C185AA
:1019A000C184FFF72AFC10BD0168CA6822F4907256
:1019B000CA6001684A6922F001024A61202180F868
:1019C0003A10704710B590F83A10222901D0022041
:1019D00010BD8168B1F5805F11D0016900290168EF
:1019E0001FD0496801F07F03816A4A1C82620B7034
:1019F000C18D491E0904090CC18518D02BE002696C
:101A0000816A002A0268526805D0D2B20A80816ACF
:101A1000491C8162ECE7C2F308020A80816A891CD2
:101A2000F7E74A68816A4B1C83620A70E0E7016845
:101A3000CA6822F02002CA600168CA6822F4807273
:101A4000CA6001684A6922F001024A61202180F8D7
:101A50003A10FFF71DFD002010BD00002DE9F041F8
:101A6000044600680169E26821F4405111430161B4
:101A70002169A0680843616908432168CA6841F286
:101A80000C639A430243CA6020684169A26921F449
:101A90004071114341614C492068642532268842D7
:101AA0003CD1FFF7BDF900EBC00101EB001061680C
:101AB0008900B0FBF1F7FFF7B3F900EBC00101EBD0
:101AC00000106168B0468900B0FBF1F0B0FBF5F0A2
:101AD0006FF01801484307EB800106EB0110B0FBE3
:101AE000F5F000F0F006FFF79BF900EBC00101EB09
:101AF000001061688900B0FBF1F0B0FBF5F006EB77
:101B00000016FFF78DF900EBC00101EB00106168D2
:101B10008900B0FBF1F7FFF783F93BE0FFF770F9BD
:101B200000EBC00101EB001061688900B0FBF1F728
:101B3000FFF766F900EBC00101EB00106168B046E9
:101B40008900B0FBF1F0B0FBF5F06FF018014843ED
:101B500007EB800106EB0110B0FBF5F000F0F0069A
:101B6000FFF74EF900EBC00101EB0010616889003E
:101B7000B0FBF1F0B0FBF5F006EB0016FFF740F913
:101B800000EBC00101EB001061688900B0FBF1F7C8
:101B9000FFF736F900EBC00101EB00106168890026
:101BA000B0FBF1F0B0FBF5F06FF01801484307EB24
:101BB000800108EB0110B0FBF5F0216800F00F0088
:101BC00030448860BDE8F0810038014090F8391059
:101BD000212901D0022070478168B1F5805F016A38
:101BE0000BD04A1C0262026809785160C18C491E00
:101BF0000904090CC1840ED017E009880268C1F3FA
:101C00000801516001690029016A02D0491C016282
:101C1000ECE7891CFBE70168CA6822F08002CA6011
:101C20000068C16841F04001C160002070472DE9A3
:101C3000F041984617460E460446069D1DE0681C76
:101C40001BD02DB1FEF7A8FCA0EB0800A84214D9C8
:101C50002068C16821F4D071C1602068416921F019
:101C600001014161202084F8390084F83A00002005
:101C700084F838000320BDE8F0812068006836EA67
:101C8000000004D00020B842D9D00020F3E70120A2
:101C9000F9E700000148FFF7B1BA00008C0100200D
:101CA00010B5D0F8142252689047002010BD13469A
:101CB00010B50A46002100F0EAFA002010BD1346D4
:101CC00010B50A46002100F08CFB002010BD10B5B5
:101CD0000446802100F05CFB2046BDE81040002156
:101CE00000F056BB10B505210023C0F8F4111A46C8
:101CF000194600F0CCFA002010BD10B50223826115
:101D0000C0F8F431C26113460A46002100F069FBB5
:101D1000002010BD10B504210023C0F8F4111A46AC
:101D2000194600F05EFB002010BD000010B50A4609
:101D3000024903A000F0CEF8004810BD640800205E
:101D400048494420436F6E6669670000122008808E
:101D5000004870473000002010B50A46024903A031
:101D600000F0B8F8004810BD64080020484944203D
:101D7000496E746572666163650000000420088026
:101D8000004870472C00002010B50A46024903A005
:101D900000F0A0F8004810BD6408002054696E618E
:101DA000536F66740000000010B50A46024903A094
:101DB00000F090F8004810BD6408002054696E617E
:101DC000536F6674206B6579626F61726400000006
:101DD00010B50A46024903A000F07CF8004810BD87
:101DE0006408002030303030303030303030314115
:101DF00000000000F8B5044648880D46010A08298D
:101E00004BD2DFE801F04A0409174A4A4048D4F8A7
:101E10001012207C0A6832E0207C02260028D4F8C8
:101E2000140205D0C16A684688470146467041E001
:101E3000816AF8E7C0B206282FD2DFE800F0030875
:101E40000D12171CD4F81012207C4A6817E0D4F841
:101E50001012207C8A6812E0D4F81012207CCA6824
:101E60000DE0D4F81012207C0A6908E0D4F81012B2
:101E7000207C4A6903E0D4F81012207C8A69694604
:101E80009047014616E0207C38B9D4F81402416B23
:101E900068468847F5E7207C20B129462046FFF7B1
:101EA00016FFF8BDD4F81402016B68468847014656
:101EB00007204870BDF800000028F2D0EA88002A08
:101EC000EFD0824200D90246ADF800202046FFF74D
:101ED00014FFF8BD70B5002300281DD0044600256E
:101EE00002E06D1CEDB2641C2678002EF9D10224AC
:101EF00004EB45041480CC545B1C0322CA54002418
:101F00005B1C06E0CA545B1CDAB28C54521CD3B280
:101F1000401C0278002AF5D170BDD0F818020021CB
:101F200001730846704710B50446812100F0B1F8EE
:101F3000D4F8180220B100F0CBFB0020C4F818023E
:101F4000002010BD22210180004870479000002031
:101F50000A21018000487047C000002070B5054686
:101F6000002408230322812100F07EF9102000F0D4
:101F7000B1FBC5F8180218B100210173204670BDED
:101F80000124FBE710B5134690F8FC41D0F8182265
:101F9000032C07D1147B2CB9012414730A46812128
:101FA00000F01FFA002010BD70B500220D78D0F8A7
:101FB0001832144615F060051BD0202D40D14A7808
:101FC000022A13D0032A0AD00A2A0BD00B2A03D0E4
:101FD000FFF77DFE022070BD8878186030E0012296
:101FE000194624E04888000A586029E00122191D9A
:101FF0001DE04D78062D04D00A2D1BD00B2D1FD1CE
:102000001CE04B882225B5EB132F05D1CA88BB2ACB
:1020100000D9BB220B4C09E02125B5EB132F05D1CC
:10202000084CCA88183C092A00D909222146FFF722
:1020300064FE05E0012203F10801F8E78878986062
:10204000002070BDCC00002010B580B1D0F8143253
:1020500013B10023C0F8143209B1C0F810120121E5
:1020600080F8FC11027000F0AFF8002010BD0220D3
:1020700010BD10B50024D0F82002FEF79DFB30B152
:10208000012801D0022801D0022400E001242046CA
:1020900010BD10B50024D0F82002FEF76DFB30B162
:1020A000012801D0022801D0022400E001242046AA
:1020B00010BD2DE9F0411746044641B1D4F8140291
:1020C00042698AB394F8FC01032842D043E0D4F873
:1020D000F411002504F11400022933D1D0E9026380
:1020E0009E4207D9F31A83609AB239462046FFF719
:1020F000E6FD12E04068B0FBF3F103FB1101A1B96A
:10210000984212D3D4F8F81188420ED20022114618
:102110002046FFF7D4FDC4F8F85100231A461946AB
:10212000204600F0B4F80DE012E0D4F81402C168C3
:1021300029B194F8FC01032801D1204688472046A4
:10214000FFF7D0FD94F80002012804D184F8005272
:1021500001E0204690470020BDE8F08170B51546AB
:10216000044641B1D4F8140282693AB394F8FC01F0
:10217000032824D025E0D4F8F41104F58270032953
:102180001FD1D0E902218A420BD9531A8360084635
:10219000834200D303469AB229462046FFF787FDC3
:1021A0000FE0D4F81402016929B194F8FC01032866
:1021B00001D1204688472046FFF7ACFD01E02046CC
:1021C0009047002070BD000010B519490446C1F8C1
:1021D0005C04C0F8201217480860082048600220FC
:1021E00088600320C86000208861C86108620846D2
:1021F000FEF706FC20B14FF497710FA000F0B7FD79
:102200000022D4F820021823114604F50874FEF7C2
:1022100089FA5823002280212068FEF783FA4FF4C0
:102220008073002281212068FEF77CFA002010BD17
:1022300004040020005C00402E2E2F5372632F7583
:102240007362645F636F6E662E6300000A06D0F8E7
:10225000200201F07F0100EB411002D590F82A0026
:10226000704790F82A02704770B51D461346002447
:10227000D0F820022A46FEF7C3FA30B1012801D077
:10228000022801D0022400E00124204670BD10B5D0
:102290000024D0F82002FEF7D5FA30B1012801D091
:1022A000022801D0022400E00124204610BD70B5B0
:1022B0000022044640231146FFF7D6FF40252B4657
:1022C000002280212046C4F81051FFF7CDFF0120E5
:1022D000256284F8FC01D4F8180228B1D4F814025D
:1022E0002179426820469047002070BD90F8FD118A
:1022F00080F8FC110020704710B590F8FC110329FC
:1023000004D1D0F81412C96901B18847002010BD6A
:1023100001740020704710B50024D0F82002FEF7A9
:1023200002FC30B1012801D0022801D0022400E0D3
:102330000124204610BD70B5044600F50270054624
:1023400000F05FF80120C4F8F401B4F80E02C4F8FC
:10235000F80194F8080210F01F010AD001290DD0ED
:10236000022910D000F08001204600F011F8002072
:1023700070BD2946204600F0AAF8F8E72946204615
:1023800000F08CF9F3E72946204600F019F9EEE752
:1023900010B50024D0F82002FEF76BFA30B1012806
:1023A00001D0022801D0022400E00124204610BD03
:1023B00010B50024D0F82002FEF7D0FB30B1012880
:1023C00001D0022801D0022400E00124204610BDE3
:1023D00090F8FC1180F8FD11042180F8FC11002018
:1023E000704710B50024D0F82002FEF76DFA30B126
:1023F000012801D0022801D0022400E00124204657
:1024000010BD0A7802704A7842708A78CB7802EB65
:10241000032242800A794B7902EB032282808A7977
:10242000C97902EB0121C18070470246002011B139
:10243000C2F8141270470220704710B5D0F8142269
:1024400002241AB11268904700B90024204610BD3A
:1024500070B50E461A4D897804462970012928D88E
:1024600094F8FC01022802D0032822D105E099B19A
:102470000320616084F8FC0109E091B16068884242
:102480000AD0C1B22046FFF70BFC297861602046D4
:10249000FFF7D3FF02280CD02046BDE87040FFF7BD
:1024A00039BC022084F8FC0120466160FFF7F8FB8C
:1024B000F2E731462046BDE87040FFF708BC000057
:1024C0005400002010B5FFF773FF002010BD2DE968
:1024D000F04100264B78012532460A2B43D2DFE833
:1024E00003F03C584251420805422A27FFF782FC7C
:1024F00063E004468888C8B9C888B8B9887800F00D
:102500007F0794F8FC01032810D084F8FE71394647
:102510002046FFF700FF2046FFF7FCFB1FB102201B
:1025200084F8FC0149E084F8FC5146E020461AE0BA
:10253000FFF78EFF41E0CB88012B14D190F8FC31DE
:10254000022B02D0032B0ED104E08260012200F1A5
:10255000080114E00122011D11E090F8FC21022A7B
:1025600004D0032A02D0FFF7B2FB26E0C560D0F802
:10257000041209B10321C160022200F10C01FFF72E
:10258000BCFB1AE004464888012816D1C4F804525E
:102590000BE0044690F8FC01022801D00328C5D1C5
:1025A0004888012809D1C4F80422D4F814028268AA
:1025B000204690472046FFF7ADFB3046BDE8F0814E
:1025C00070B50D460446287800260979C0F34110FD
:1025D000012806D06878A0B301281FD003283FD176
:1025E00007E0D4F81402294682682046904700206C
:1025F00070BD94F8FC01022817D003282CD16888FC
:1026000028B921B1802902D02046FFF7C1FED4F8B5
:102610001402294682682046904713E094F8FC0192
:10262000022802D0032817D103E0C9B180291BD1A9
:1026300016E06888A0B9480604D02046FFF719FDC7
:10264000E5E703E02046FFF765FB09E094F8FC01AD
:10265000022807D003280BD029462046FFF737FB76
:10266000304670BD4806FBD02046FFF791FEF7E7E5
:10267000080601F07F0004EB001501D5143501E0D8
:1026800005F582752046FFF7E1FD00B101202860C5
:10269000022229462046FFF730FBE1E770B50546E8
:1026A00090F8FC010C4603280DD1207901280AD8A6
:1026B000D5F81402826828469047E08830B9284649
:1026C000FFF728FB02E02846FFF701FB002070BD62
:1026D0007047000000487047F00300202DE9F047E4
:1026E000CC780A7848F68F1334B1012C6DD0022CC7
:1026F00008D0032C13D10BE030F822401C4044F4E6
:1027000000730AE030F822401C4020F8224006E026
:1027100030F822401C4044F4C06320F822300C788A
:1027200030F8245048F68F72154048F280031D435C
:10273000254320F824508D7A48F6BF7904274BF6BC
:102740008F7A48F2C0044CF28006EDB30D7830F871
:1027500025C048F280180CEA020C4CEA080C20F85C
:1027600025C0CD88B0F850C025F0010591F8008053
:102770000CEBC80C00EB4C0CCCF800540D89B0F8F5
:1027800050C025F0010591F8008007EBC8076744A9
:1027900000EB4707C7F800544D78002D0D7830F84E
:1027A00025704FEA47477DD0002F05DA30F82570B5
:1027B0001740374320F825700D7830F825707F06D4
:1027C00008D530F8257001E024E01DE017402743CC
:1027D00020F825700C7830F824501540354320F847
:1027E00024500C7830F8242002EA09021A4320F819
:1027F00024200A7830F8221001EA0A01194320F84F
:1028000022100020BDE8F08730F822401C4044F43C
:10281000806382E74D78F5B18D88B0F8506025F07F
:1028200001050F7806EBC70600EB4606C6F8005414
:102830000D7830F82560760605D530F8256016400D
:10284000264320F825600A7830F8221001EA0901B1
:1028500081F02001D2E78C88B0F8505024F00104B8
:1028600091F800C007EBCC073D4400EB4505C5F8E7
:102870000044B0F850400D78062707EBC5052C44FE
:1028800000EB44070C694FF6FF7C07F580673E2C90
:102890000CD9C4F34F15E40601D16D1EADB20CEA9C
:1028A000852400E01EE044F4004407E0C4F34F0533
:1028B000E40701D06D1CADB20CEA85243C600C78B5
:1028C00030F824506D0405D530F8245015403543B8
:1028D00020F824500A7830F8221001EA0A0181F425
:1028E00040518BE7002F05DA30F825701740374349
:1028F00020F825700D7830F82560760605D530F87B
:1029000025601640264320F825600E7830F82650C2
:102910001540254320F826500C7830F8242002EA90
:102920000A0282F440521A4320F824200A7830F830
:10293000221001EA090161E7002070472DE9F04308
:1029400091F80A8091F801C00A7848F6BF774BF6F3
:102950008F7948F2800348F2C0054CF2800648F6B1
:102960008F74B8F1000F2ED0BCF1000F30F822C0E8
:102970004FEA4C4C4ED0BCF1000F07DA30F822C0C1
:102980000CEA040C4CEA060C20F822C00A7830F855
:1029900022C05FEA4C6C07D530F822C00CEA040C68
:1029A0004CEA050C20F822C00A7830F82250254065
:1029B000354320F822500C7830F824203A401A434E
:1029C00020F824201BE0BCF1000F0ED030F822606C
:1029D000760605D530F8226026402E4320F8226086
:1029E0000A7830F8221039400EE030F822506D0499
:1029F00005D530F822502540354320F822500A787A
:102A000030F8221001EA0901194320F822100020B1
:102A1000BDE8F083BCF1000F07DA30F822C00CEA01
:102A2000040C4CEA060C20F822C00A7830F8226028
:102A3000760605D530F8226026402E4320F8226025
:102A40000E7830F8262022402A4320F826200C78E1
:102A500030F8242002EA09021A4320F82420BFE7B4
:102A6000002070470020704700B50121A0F84010F9
:102A70000021A0F84010A0F84410A0F8501000F079
:102A80003AF9002000BD30F8401F21F43D4101809B
:102A9000002070470020704730B54D780A78002D2F
:102AA00048F68F7430F8225048F2800312D06D0639
:102AB00007D530F82250254048F2C004254320F8BD
:102AC00022500A7830F8221048F6BF74214081F075
:102AD000300111E06D0407D530F8225025404CF24A
:102AE0008004254320F822500A7830F822104BF653
:102AF0008F74214081F44051194320F822100020A6
:102B000030BD10B50A7848F2800352B149780029E7
:102B100030F8221010D048F6BF74214081F0100127
:102B20000FE001884BF6BF72114081F4805181F0B3
:102B300010011943018007E04BF68F74214081F4A6
:102B40008051194320F82210002010BD2DE9F041DA
:102B50000D460646896995F801C00023AA7A022726
:102B600028690C4648F28008BCF1010F05D081426B
:102B700052D90446081AA8614FE0814203D904469D
:102B8000081AA86100E0AB617AB1287836F8201005
:102B90004906B6F8501007EBC000084406EB4000A9
:102BA000C0F8004412D52A8911E0A3B2AA883046A1
:102BB000696900F0C8F8B6F85000297807EBC10140
:102BC000084406EB4000C0F800441CE0EA88A3B2C9
:102BD0003046696900F0B7F8687848F68F7110B12F
:102BE000012807D00FE0287836F820200A4048F264
:102BF000C00105E0287836F820200A404CF2800118
:102C00000A4326F82020297836F8210048F6BF72BA
:102C1000104080F0300067E0AB6106234FF6FF7094
:102C20001AB1BCF1000F1BD056E0B6F850102A784C
:102C30003E2C03EBC202114406EB410202F5806216
:102C400039D9C4F34F11E30632D000BF00EA812026
:102C500040F4004002E000BF00EA812010603BE049
:102C6000B6F850102A783E2C07EBC202114406EB4E
:102C7000410202F580620BD9C4F34F115FEAC46CC4
:102C800001D1491E89B200EA812141F4004108E0E6
:102C9000C4F34F015FEAC47C01D0491C89B200EA49
:102CA0008121116069780029BFD001290AD013E081
:102CB000491E89B2CAE7C4F34F01E307CCD0491CCF
:102CC00089B2C9E7B6F85000297807EBC10108447A
:102CD00006EB4000C0F80044297836F821004BF696
:102CE0008F72104080F4405040EA080026F821001E
:102CF0000020BDE8F08130F8401F41F43F410180E1
:102D0000002070470148FDF7F4BD000004040020D6
:102D1000B0F84400704700005B1C00EB42005B0809
:102D200000F5806006D000BF30F8042B21F8022B9C
:102D30005B1EF9D170470020704711B98021A0F8BF
:102D40004C100020704710B55B1C00EB42005B0884
:102D500000F5806009D011F8012B5B1E11F8014BC2
:102D600042EA042220F8042BF5D110BDFEE7FEE76D
:102D7000004870478801002002E008C8121F08C1FF
:102D8000002AFAD170477047002001E001C1121FEC
:102D9000002AFBD170470000FDF70CFCFEF79CFDFC
:102DA000FEF77AFBFEF7B6FBD748D649002501604F
:102DB000D649C0E901154FF00C09C560C0E90459B6
:102DC0008561C561FEF7A2FA00B1FEE7D04C01278C
:102DD0004FF0020827706570A570E5702571657168
:102DE000A571E571B4F10606C949C6F80250C823B9
:102DF0000422091FC448FEF7EFFA0120FDF7D6FAB6
:102E0000C348001FFDF7A0F980B23080E1285CD0F4
:102E1000E22860D0E32864D0E42868D0E5286CD0AC
:102E2000E6287AD0E7287ED0E8286ED0E9286DD051
:102E3000EA286CD0EB286BD0ED286AD0EE2869D058
:102E4000EF2868D0F02867D0F12872D0F22871D02E
:102E5000F32870D0F4286FD0F5286ED0F6286DD006
:102E6000F7286CD0F8286BD0F9286AD0FA2869D0F6
:102E7000FB2868D0FC2867D0FD2872D0FE2871D0CE
:102E8000FF2870D0B0F5807F6ED0A0F58071013939
:102E900015D0B0F5817F68D0891E67D0B0F5827FEC
:102EA00071D0891E70D0B0F5837F6ED0891E6DD031
:102EB000002899D027706570A570E070E5E0277054
:102EC00084F80180A5701B20F7E7277084F8018043
:102ED000A5703820F1E7277084F80180A5703620AE
:102EE000EBE7277084F80180A5701E20E5E72770C6
:102EF00084F80180A5702220DFE7277084F8018024
:102F0000A5701F20D9E708E00DE01EE023E02EE0C9
:102F100033E03CE041E046E04BE0277084F801807C
:102F2000A5702320C9E7277084F80180A5702020B0
:102F3000C3E744E049E04EE053E058E05DE062E082
:102F400067E06CE071E076E07BE0277084F8018058
:102F5000A5702420B1E7277084F80180A570332084
:102F6000ABE774E079E07EE083E0ACE087E02770D7
:102F700084F80180A5702F209FE7277084F80180D6
:102F8000A570212099E7AAE0A3E0B4E0ADE02770A6
:102F900084F80180A57004208FE7277084F80180F1
:102FA000A570162089E7277084F80180A5700B2092
:102FB00083E7277084F80180A57011207DE72770D2
:102FC00084F80180A570102077E7277084F80180CD
:102FD000A5700D2071E7277084F80180A570062088
:102FE0006BE7277084F80180A570152065E72770CE
:102FF00084F80180A5700E205FE7277084F80180B7
:10300000A570172059E7277084F80180A570072064
:1030100053E7277084F80180A5700F204DE72770D3
:1030200084F80180A5701C2047E7277084F8018090
:10303000A570122041E7277084F80180A570082050
:103040003BE7277084F80180A570192035E72770C9
:1030500084F80180A57018202FE7277084F801807C
:10306000A570132029E7277084F80180A570092036
:1030700023E7277084F80180A57005201DE72770DD
:1030800084F80180A57084F8039025716571A5719D
:10309000E57108221E491F48FEF774FF1E20FDF748
:1030A00085F927706570A570E57025716571A5714A
:1030B000E571082216491748FEF764FF1E20FDF748
:1030C00075F9358090E6277084F80180A5701A2084
:1030D000F3E6277084F80180A5701420EDE62770D0
:1030E00084F80180A5701D20E7E6277084F8018030
:1030F000A5700A20E1E6277084F80180A5703720CA
:10310000DBE60000003801408C01002090D0030075
:1031100006000020CC01002000000000000000009C
:10312000010203040607080900000000010203046D
:1031300000404040404040404040414141414140CA
:10314000404040404040404040404040404040407F
:10315000400502020202020202020202020202020E
:103160000220202020202020202020020202020213
:10317000020290909090909010101010101010106B
:103180001010101010101010101010100202020277
:1031900002028888888888880808080808080808BB
:1031A00008080808080808080808080802020202B7
:1031B0004000000031310008D83100080000002034
:1031C0008C010000BA020008D83200088C010020EF
:1031D000DC0C0000882D00080110134D1D1B087D1C
:1031E000041A89041AA9041AD1041A2D041A5904BC
:1031F000170403090412013202164083042B5726D8
:103200000201020301190311821044A24A04135D52
:103210001F1B0827041AA904819A1B0C811A451444
:1032200069041A5104140902221301011CE0320935
:10323000471B01030B1509211101140122BB1607BD
:1032400005810308220A7912314B0A06902984105D
:103250001005010906A1018501050719E029E715F7
:10326000280E2501750195088102750895018116C2
:10327000111B2965161A65101305811EC0050C095E
:10328000012F130219152A3C02152808263C029525
:10329000017510191C010980195E031981298346E3
:1032A0001C038102343E01C00601FF351A042B18AD
:1032B00012081501250A0920B1030923B103254F7E
:1032C000092106780C300922B10395030924B103C2
:0832D0002C0A21052C5100001D
:04000005080000ED02
:00000001FF
